:100000000C9499030C94C1030C94C1030C94281D07
:100010000C94281D0C94281D0C94C1030C942A1CCC
:100020000C94C1030C94C1030C94C1030C94C10340
:100030000C94C1030C94C1030C94C1030C94C10330
:100040000C94DE1C0C94C1030C94AC1C0C94861C08
:100050000C94C1030C94C1030C94C1030C94C10310
:100060000C94C1030C94C10300407A10F35A00A011
:10007000724E18090010A5D4E80000E87648170071
:1000800000E40B54020000CA9A3B000000E1F505B1
:10009000000080969800000040420F000000A086FB
:1000A00001000000102700000000E803000000002D
:1000B0006400000000000A000000000001000000D1
:1000C00000002C76D888DC674F0823DFC1DFAE59EB
:1000D000E1B1B796E5E3E453C63AE651997696E87E
:1000E000E6C28426EB898C9B62ED407C6FFCEFBC02
:1000F0009C9F40F2BAA56FA5F490055A2AF75C932D
:100100006B6CF9676DC11BFCE0E40D47FEF520E662
:10011000B500D0ED902E0300943577050080841E45
:10012000080000204E0A000000C80C333333330FA0
:10013000986E12831141EF8D2114893BE65516CF3D
:10014000FEE6DB18D1844B381BF77C1D901DA4BB49
:10015000E424203284725E228100C9F124ECA1E5FE
:100160003D2700000000003E5B4F5B3E3E6B4F6B47
:100170003E1C3E7C3E1C183C7E3C181C577D571C88
:100180001C5E7F5E1C00183C1800FFE7C3E7FF0001
:1001900018241800FFE7DBE7FF30483A060E26294F
:1001A000792926407F050507407F05253F5A3CE712
:1001B0003C5A7F3E1C1C08081C1C3E7F14227F22D8
:1001C000145F5F005F5F06097F017F006689956AA3
:1001D000606060606094A2FFA29408047E0408102E
:1001E000207E201008082A1C08081C2A08081E1057
:1001F0001010100C1E0C1E0C30383E3830060E3E0F
:100200000E06000000000000005F0000000700076D
:1002100000147F147F14242A7F2A12231308646297
:1002200036495620500008070300001C22410000F8
:1002300041221C002A1C7F1C2A08083E0808008056
:1002400070300008080808080000606000201008EE
:1002500004023E5149453E00427F400072494949EF
:10026000462141494D331814127F10274545453921
:100270003C4A494931412111090736494949364625
:100280004949291E00001400000040340000000805
:1002900014224114141414140041221408020159A8
:1002A00009063E415D594E7C1211127C7F49494935
:1002B000363E414141227F4141413E7F49494941CA
:1002C0007F090909013E414151737F0808087F00F9
:1002D000417F41002040413F017F081422417F407F
:1002E0004040407F021C027F7F0408107F3E414156
:1002F000413E7F090909063E4151215E7F091929C6
:1003000046264949493203017F01033F4040403FAF
:100310001F2040201F3F4038403F631408146303F0
:10032000047804036159494D43007F41414102046F
:10033000081020004141417F040201020440404076
:100340004040000307080020545478407F2844446C
:10035000383844444428384444287F385454541886
:1003600000087E090218A4A49C787F080404780081
:10037000447D40002040403D007F10284400004163
:100380007F40007C047804787C0804047838444476
:100390004438FC1824241818242418FC7C0804046D
:1003A00008485454542404043F44243C4040207CD6
:1003B0001C2040201C3C4030403C44281028444C29
:1003C0009090907C4464544C4400083641000000F6
:1003D000770000004136080002010204023C262397
:1003E000263C1EA1A161123A4040207A385454554F
:1003F0005921555579412254547842215554784019
:1004000020545579400C1E527212395555555939A0
:100410005454545939555454580000457C410002F5
:10042000457D420001457C407D1211127DF028255A
:1004300028F07C545545002054547C547C0A097F94
:100440004932494949323A4444443A324A484830A8
:100450003A4141217A3A42402078009DA0A07D3D5A
:100460004242423D3D4040403D3C24FF2424487EE2
:100470004943662B2FFC2F2BFF0929F620C0887ECD
:10048000090320545479410000447D413048484AD2
:1004900032384040227A007A0A0A727D0D19317D85
:1004A0002629292F28262929292630484D40203859
:1004B0000808080808080808382F10C8ACBA2F1018
:1004C0002834FA00007B000008142A142222142A7F
:1004D00014085500550055AA55AA55AAFF55FF55B1
:1004E000FF000000FF00101010FF00141414FF00A4
:1004F0001010FF00FF1010F010F0141414FC001482
:1005000014F700FF0000FF00FF1414F404FC14149F
:1005100017101F10101F101F1414141F001010109C
:10052000F0000000001F101010101F10101010F02D
:1005300010000000FF101010101010101010FF100D
:10054000000000FF140000FF00FF00001F10170054
:1005500000FC04F414141710171414F404F400002D
:10056000FF00F714141414141414F700F7141414DF
:10057000171410101F101F141414F4141010F0107E
:10058000F000001F101F0000001F14000000FC14EA
:100590000000F010F01010FF10FF141414FF1410DE
:1005A00010101F00000000F010FFFFFFFFFFF0F031
:1005B000F0F0F0FFFFFF0000000000FFFF0F0F0F43
:1005C0000F0F3844443844FC4A4A4A347E0202063B
:1005D00006027E027E0263554941633844443C046E
:1005E000407E201E2006027E020299A5E7A5991CE6
:1005F0002A492A1C4C7201724C304A4D4D30304809
:10060000784830BC625A463D3E494949007E010166
:10061000017E2A2A2A2A2A44445F444440514A44FB
:100620004040444A51400000FF0103E080FF0000C9
:1006300008086B6B083612362436060F090F0600C1
:100640000018180000001010003040FF0101001FCA
:1006500001011E00191D1712003C3C3C3C0000002B
:10066000000000000000240027002A0004E010021F
:100670001C07123732292D29252B3900010310E1DF
:1006800010031D07062E2C292D2E2E373F000002A9
:100690001013800A298064022A04000200812B04BE
:1006A000000100A00F0180961180FFB103012C2DE5
:1006B000B203012C2DB306012C2D012C2DB4010702
:1006C000C003A20284C101C5C2020A00C3028A2A71
:1006D000C4028AEEC5010E20003601C83A010502A7
:1006E00000000008000201000003040700000000F1
:1006F0000000000000000000230026002900010285
:10070000040810204080010204081020010204089F
:10071000102000000000250028002B000404040421
:10072000040404040202020202020303030303039B
:10073000A01D11241FBECFEFD8E0DEBFCDBF12E059
:10074000A0E0B1E0E0EAF2E602C005900D92A63921
:10075000B107D9F724E0A6E9B2E001C01D92A434A4
:10076000B207E1F713E0C9E9D3E004C02197FE0125
:100770000E94EC2FC839D107C9F70E94A51F0C941D
:100780004E310C940000AF92BF92CF92DF92EF9265
:10079000FF920F931F93CF93DF936C017B018B012B
:1007A000040F151FEB015E01AE18BF08C017D1077B
:1007B00059F06991D601ED91FC910190F081E02D05
:1007C000C6010995892B79F7C501DF91CF911F915A
:1007D0000F91FF90EF90DF90CF90BF90AF90089572
:1007E0000895FC01538D448D252F30E0842F90E037
:1007F000821B930B541710F0CF960895019708951C
:10080000FC01918D828D981761F0A28DAE0FBF2FE4
:10081000B11D5D968C91928D9F5F9F73928F90E03A
:1008200008958FEF9FEF0895FC01918D828D9817A9
:1008300031F0828DE80FF11D858D90E008958FEFE6
:100840009FEF0895FC01918D228D892F90E0805CAF
:100850009F4F821B91098F739927089584E093E03D
:100860000E94220421E0892B09F420E0822F0895C0
:1008700080E090E0892B29F00E942E0481110C94D5
:1008800000000895FC01A48DA80FB92FB11DA35A33
:10089000BF4F2C91848D90E001968F739927848FA0
:1008A000A689B7892C93A089B1898C9183708064C3
:1008B0008C93938D848D981306C00288F389E02D64
:1008C00080818F7D80830895EF92FF920F931F9315
:1008D000CF93DF93EC0181E0888F9B8D8C8D9813F3
:1008E0001AC0E889F989808185FF15C09FB7F894FF
:1008F000EE89FF896083E889F9898081837080644B
:1009000080839FBF81E090E0DF91CF911F910F9195
:10091000FF90EF900895F62E0B8D10E00F5F1F4FA4
:100920000F731127E02E8C8D8E110CC00FB607FCB3
:10093000FACFE889F989808185FFF5CFCE010E9441
:100940004204F1CFEB8DEC0FFD2FF11DE35AFF4F69
:10095000F0829FB7F8940B8FEA89FB8980818062CF
:10096000CFCFCF93DF93EC01888D8823B9F0AA898C
:10097000BB89E889F9898C9185FD03C0808186FD5A
:100980000DC00FB607FCF7CF8C9185FFF2CF8081A9
:1009900085FFEDCFCE010E944204E9CFDF91CF91D8
:1009A0000895833081F028F4813099F08230A9F0E5
:1009B00008958730A9F08830C9F08430B1F480916F
:1009C00080008F7D03C0809180008F7780938000AE
:1009D000089584B58F7784BD089584B58F7DFBCF4E
:1009E0008091B0008F778093B00008958091B0001F
:1009F0008F7DF9CFCF93DF93E6EEF6E08491E4E0CC
:100A0000F7E0D491E2E2F7E0C491CC23A1F08111A8
:100A10000E94D104EC2FF0E0EE0FFF1FEC50F94FD5
:100A2000A591B491EC91ED2381E090E009F480E090
:100A3000DF91CF91089580E090E0FACF1F93CF939C
:100A4000DF93282F30E0F901E052F94F8491F9014A
:100A5000E250F94FD491F901E45EF84FC491CC23F0
:100A6000A9F0162F81110E94D104EC2FF0E0EE0FB7
:100A7000FF1FEE5EF84FA591B4918FB7F894EC91FB
:100A8000111108C0D095DE23DC938FBFDF91CF9189
:100A90001F910895DE2BF8CF9091000189130BC0B0
:100AA000EFEDF6E0E4919FEF90930001E13049F023
:100AB00028F0E23061F060E00C941E0510926E00A8
:100AC000FACF90916F009D7F90936F00F4CF90913B
:100AD00070009D7F9093700091E09093B000909192
:100AE000B100987F94609093B1001092B300E3CF6F
:100AF000CF93DF9390E0FC01E250F94F2491845EA4
:100B0000984FFC0184918823C9F090E0880F991FC9
:100B1000FC01EE59F94FA591B491FC01EE5EF84F3E
:100B2000C591D49161110DC09FB7F8948C91209517
:100B300082238C938881282328839FBFDF91CF91C4
:100B40000895623051F49FB7F8943C91822F8095BC
:100B500083238C93E8812E2BEFCF8FB7F894EC9101
:100B60002E2B2C938FBFEACFCF93DF93EC0161E064
:100B700085E00E947805209731F460E085E0DF9100
:100B8000CF910C941E05CF3FD10511F461E0F6CF53
:100B9000E5EEF6E0E491E33029F140F4E130B1F024
:100BA000E230D9F0C038D1058CF7E7CFE73021F13A
:100BB000E83051F1E430B1F7809180008062809399
:100BC0008000D0938B00C0938A0004C084B58068F5
:100BD00084BDC7BDDF91CF91089584B5806284BD87
:100BE000C8BDF8CF80918000806880938000D0934A
:100BF0008900C0938800EECF8091B0008068809318
:100C0000B000C093B300E6CF8091B00080628093C3
:100C1000B000C093B400DECF8F929F92AF92BF928C
:100C2000CF92DF92EF92FF92CF936C0180910001FF
:100C3000823069F08F3F09F470C0CF91FF90EF9040
:100C4000DF90CF90BF90AF909F908F900895EFED81
:100C5000F6E0C491C7FDF1CF61E082E00E94780523
:100C6000CC2319F0C23009F022C1F12CE12C60E054
:100C700072E18AE790E0A70196010E94542E490193
:100C80005A01DA01C9010197A109B1098F3F910504
:100C9000A105B10509F00CF4EEC060E472E48FE048
:100CA00090E0A70196010E94542E2150310941097C
:100CB0005109C23009F0A0C082E02F3F3105410543
:100CC000510509F00CF488C160E970ED83E090E013
:100CD000A70196010E94542E215031094109510962
:100CE00083E02F3F31054105510509F00CF474C133
:100CF00068E478EE81E090E0A70196010E94542E0E
:100D000021503109410951092F3F31054105510554
:100D100011F00CF08FC084E05FC182E0809300018D
:100D2000EFEDF6E0C491CF3F09F487CFC13021F158
:100D300050F0C23009F43EC0C7FD7FCF61E082E0D1
:100D40000E9478058FCF14BC15BC84B5826084BD29
:100D500085B5816085BDEEE1F7E0E491F0E0EE0F4E
:100D6000FF1FEE5EF84F85919491E0E0F7E0E4918B
:100D7000E093EE02C0E070CF1092800010928100EC
:100D800080918100886080938100809181008160E2
:100D900080938100EEE1F7E0E491F0E0EE0FFF1FB9
:100DA000EE5EF84F85919491E0E0F7E0E491E093F6
:100DB000ED0252CF1092B0001092B1008091B000BD
:100DC00082608093B0008091B10081608093B10017
:100DD000EEE1F7E0E491F0E0EE0FFF1FEE5EF84F7A
:100DE000859194919093EC028093EB02E0E0F7E020
:100DF000E491E093EA0230CF2F3F310541055105E0
:100E000009F00CF452C068E478EE81E090E0A701AC
:100E100096010E94542E2150310941095109CC23D9
:100E200009F4AFC02F3F31054105510511F00CF019
:100E3000B0C071CF64E274EF80E090E0A70196014A
:100E40000E94542E215031094109510985E02F3F5C
:100E500031054105510509F008F4BEC062E17AE7A9
:100E600080E090E0A70196010E94542E21503109A4
:100E7000410951099CC09C0181E0C111ADC095B5EB
:100E8000987F892B85BD27BD8FEF9FEFDC01809375
:100E9000F7029093F802A093F902B093FA028091BE
:100EA0006E00826080936E00C8CE82E0E6CFF12CA7
:100EB000E12C60E072E18AE790E0A70196010E94D0
:100EC000542E215031094109510991E02115310574
:100ED00081E0480751056CF068E478EE81E090E02D
:100EE000A70196010E94542E215031094109510950
:100EF00093E0C13009F076C080918100887F892B12
:100F00008093810030938900209388008FEF9FEFBA
:100F1000DC018093F3029093F402A093F502B09366
:100F2000F60280916F00826080936F0086CE2093DE
:100F3000B3008FEF9FEFDC018093EF029093F002FC
:100F4000A093F102B093F2028091700082608093CE
:100F5000700073CE84E02F3F31054105510509F043
:100F600008F48DCF9AE0B594A794979487949A95B6
:100F7000D1F7A5019401215031094109510985E0BA
:100F80007ECF83E02F3F31054105510509F00CF478
:100F900076CF62E17AE780E090E0A70196010E94B7
:100FA000542E2150310941095109CC2399F286E090
:100FB0002F3F31054105510579F070F08AE0B59475
:100FC000A794979487948A95D1F7A501940121500D
:100FD00031094109510987E09091B100987F892B2F
:100FE0008093B100C13009F48DCFC23009F49FCF96
:100FF000C11123CE48CF3FB7F8948091DC02909185
:10100000DD02A091DE02B091DF0226B5A89B05C0EB
:101010002F3F19F00196A11DB11D3FBFBA2FA92F77
:10102000982F8827BC01CD01620F711D811D911D74
:1010300042E0660F771F881F991F4A95D1F70895E0
:101040008F929F92AF92BF92CF92DF92EF92FF92D8
:101050006B017C010E94FB074B015C01C114D104B0
:10106000E104F104B9F00E94FB07681979098A09C3
:101070009B09683E73408105910580F321E0C21A07
:10108000D108E108F10888EE880E83E0981EA11CC3
:10109000B11CE4CFFF90EF90DF90CF90BF90AF9066
:1010A0009F908F9008952FB7F8946091D802709117
:1010B000D9028091DA029091DB022FBF089520912E
:1010C000E2023091E3022817390771F49091E002AF
:1010D0008091E102981741F0E091E002F0E0E956DA
:1010E000FD4F808190E008958FEF9FEF0895EF927C
:1010F000FF920F931F93CF93DF93DC015C96ED90EB
:10110000FC905D97E114F10479F481E090E013968E
:101110009C938E93129790E080E0DF91CF911F9186
:101120000F91FF90EF9008955196ED91FC91529799
:1011300050968C915097982F90950FB75E962C9162
:101140005E97122F127021FD6095F8942081112373
:1011500019F1282B2083E7012197F1F728E0462F8A
:1011600050E0308160FF1AC0382B3083E7012197AF
:10117000F1F7BA0175956795215089F7112381F030
:101180008081892380830FBF5C968D919C9101970C
:10119000F1F781E090E0C1CF2923DCCF3923E5CFFF
:1011A0009081892BEFCF2091E2023091E302281742
:1011B000390771F48091E1022091E00290E0805CB7
:1011C0009F4F821B910960E470E00E94D82F089520
:1011D00090E080E008952091E2023091E302281728
:1011E0003907B9F49091E0028091E102981789F0F3
:1011F000E091E002F0E0E956FD4F80812091E002AD
:1012000030E02F5F3F4F2F7333272093E00290E0B1
:1012100008958FEF9FEF0895FC0183898B3051F47F
:1012200080E492E4AFE0B0E0FB0184A395A3A6A321
:10123000B7A3089580E894E8AEE1B0E0F5CFCF928F
:10124000DF92EF92FF92CF93DF93DC011796CC9160
:101250001797D0E06111DC2F18962C91189730E089
:10126000220F331F2C50394F50E040E0F901859197
:101270009491FC01F080BA0190E080E0EF2DEC2326
:10128000ED1310C04F5F5F4F1D96CD90DD90ED9038
:10129000FC9050976C157D058E059F0538F36FEF18
:1012A0007FEFCB01DF91CF91FF90EF90DF90CF9058
:1012B00008958F929F92AF92BF92CF92DF92EF925A
:1012C000FF920F931F93CF93DF93CDB7DEB7C05438
:1012D000D1400FB6F894DEBF0FBECDBF8C010E9487
:1012E0005308F801C184D284E384F4849B01AC01E7
:1012F0002C193D094E095F0969017A0130EDC316C9
:1013000037E0D306E104F104A8F48189C05CDE4F24
:101310000FB6F894DEBF0FBECDBFDF91CF911F9106
:101320000F91FF90EF90DF90CF90BF90AF909F9084
:101330008F900895618772878387948714821382C0
:1013400012821182108262E085810E94780561E03C
:1013500070E080E090E00E94200861E0F801858163
:101360000E94780560E0F80185810E941E05F80161
:1013700086818551823028F58BE291E10197F1F762
:1013800062E0F80185810E947805F801828990E089
:101390008230910538F0880F991F880F991F0597A3
:1013A0000197F1F7F89460E0C8010E941F096F3FB0
:1013B0007F4F8F4F9F4F61F4F801118A789480E03E
:1013C000A5CF64E170E080E090E00E942008D8CFD3
:1013D00061E0C8010E941F096F3F7F4F8F4F9F4FF1
:1013E00059F39E012F5F3F4F79015E013FEBA31A36
:1013F0003EEFB30A670160E0C8010E941F09F601D1
:10140000608371838283938361E0C8010E941F0916
:10141000F6016483758386839783F8E0CF0ED11C31
:10142000CA14DB0441F7789430E020E0F7018080B3
:101430009180A280B3804481558166817781FFEFDE
:101440008F169F06AF06BF0631F04F3F8FEF58074C
:101450006807780719F4F801118AB1CFF90183E020
:10146000F595E7958A95E1F7E00FF11F8081880FE8
:1014700084169506A606B706F0F080832F5F3F4FCF
:10148000F8E0EF0EF11C2832310581F6F8014481B5
:1014900020818181280F3327331F8281280F311D3E
:1014A0008381820F932F911D99274817190699F66A
:1014B00081E0818B2BCF8160E0CFFC01A5A1B6A19B
:1014C0008C9192A589238C93A5A1B6A18C9191A50D
:1014D000892B8C930895DC019396ED91FC91949760
:1014E000908198968C91892380830895DC0193964E
:1014F000ED91FC919497908197968C91892B8083A4
:101500000895DC019196ED91FC91929790819696C9
:101510008C91892380830895DC019196ED91FC9153
:101520009297908195968C91892B80830895CF9284
:10153000DF92EF92FF921F93CF93DF93EC016A014A
:101540007B018DA9811123C08F2D9927AA27BB2745
:101550008EBD0DB407FEFDCFC701AA27BB278EBDE8
:101560000DB407FEFDCFBB27AF2D9E2D8D2D8EBD5B
:101570000DB407FEFDCFCEBC0DB407FEFDCFDF914D
:10158000CF911F91FF90EF90DF90CF900895813021
:10159000B1F410E2CE01F7FE0FC00E948C0ACE011A
:1015A0000E94760ACE010E946B0ACC0CDD1CEE1C58
:1015B000FF1C115079F7E3CF0E94810AF0CFEF8D25
:1015C000F8A18F2D9927AA27BB278083CE010E94DF
:1015D0005D0AEF8DF8A1C701AA27BB278083CE0142
:1015E0000E945D0AEF8DF8A1BB27AF2D9E2D8D2D9A
:1015F0008083CE010E945D0AEF8DF8A1C082CE01EA
:10160000DF91CF911F91FF90EF90DF90CF900C94DE
:101610005D0AFF920F931F93CF93DF93EC018B0131
:101620008DA981110EC01EBD0DB407FEFDCF0EBDEC
:101630000DB407FEFDCFDF91CF911F910F91FF9069
:1016400008958130B1F490E1F92ECE0117FF0EC05C
:101650000E948C0ACE010E94760ACE010E946B0A7B
:10166000000F111FFA94F110F0CFE5CF0E94810A0C
:10167000F1CFEF8DF8A11083CE010E945D0AEF8DAE
:10168000F8A10083CE01DF91CF911F910F91FF90C0
:101690000C945D0A0F931F93CF93DF93EC01162FE9
:1016A0008DA9811109C06EBD0DB407FEFDCFDF917C
:1016B000CF911F910F910895813099F408E0CE01E8
:1016C00017FF0CC00E948C0ACE010E94760A110FEF
:1016D000CE010E946B0A015091F7E9CF0E94810A66
:1016E000F3CFEF8DF8A16083CE01DF91CF911F91F1
:1016F0000F910C945D0ACF93DF93EC01ED8DFE8D7D
:1017000080819CA989238083CE010E944A0BED8DA4
:10171000FE8D80819BA9892B8083DF91CF910895D5
:101720008F929F92AF92BF92CF92DF92EF92FF92F1
:101730000F931F93CF93DF93EC0189AD9AAD680FA0
:10174000791F8BAD9CAD480F591F21503109260FD1
:10175000371F4901B12CA12CCB01B0E0A0E0DC0186
:1017600099278827882A992AAA2ABB2A680181E012
:10177000C81AD108C40ED51EF12CE12C70E060E02F
:10178000BA0155274427C42AD52AE62AF72A6AE24D
:10179000CE010E947B0BB501A401CE010E94970AE5
:1017A0006BE2CE010E947B0BB701A601CE010E9425
:1017B000970A6CE2CE01DF91CF911F910F91FF90BC
:1017C000EF90DF90CF90BF90AF909F908F900C9450
:1017D0007B0BFC0185A9811104C091A182A19CBD54
:1017E0008DBD08951F93CF93DF93EC01162FE881F1
:1017F000F9810284F385E02D0995112371F06DAD17
:10180000CE010E947B0BE881F9810688F789E02DE3
:10181000CE01DF91CF911F9109946EADF1CFAF92C0
:10182000BF92CF92DF92EF92FF920F931F93CF93CD
:10183000DF93EC0177FD38C08885998568177907B3
:101840009CF557FD31C08A859B854817590764F57B
:1018500069017A015B01E881F9810284F385E02D59
:10186000CE010995E881F98102A4F3A5E02D01E0FC
:1018700010E021E030E0A701B501CE010995B601E5
:10188000CE010E94090BE881F9810688F789E02DD5
:10189000CE01DF91CF911F910F91FF90EF90DF90DC
:1018A000CF90BF90AF900994DF91CF911F910F918E
:1018B000FF90EF90DF90CF90BF90AF9008958F9200
:1018C0009F92AF92BF92CF92DF92EF92FF920F93CF
:1018D0001F93CF93DF93EC0149015701E881F98110
:1018E00002A4F3A5E02D09959401D8010E94F22FDE
:1018F0006B017C01C114D104E104F10409F47DC041
:101900008DA9811115C081E0C81AD108E108F1083C
:101910008FEFC816D806E806F80609F46EC0BEBCFC
:101920000DB407FEFDCFAEBC0DB407FEFDCFEBCF6F
:10193000813099F581E0C81AD108E108F1088FEFEC
:10194000C816D806E806F80609F457C00B2D18E0AB
:10195000CE0107FF1CC00E948C0ACE010E94760AAD
:10196000CE010E946B0A000F115091F70A2D18E06A
:10197000CE0107FF0FC00E948C0ACE010E94760A9A
:10198000CE010E946B0A000F115091F7D3CF0E9435
:10199000810AE3CF0E94810AF0CFBA1016C0CC0CA6
:1019A000DD1CEE1CFF1CEF8DF8A1B08281E0C81A8F
:1019B000D108E108F1088FEFC816D806E806F80646
:1019C000E1F0CE010E945D0AF1CF81E0C81AD10892
:1019D000E108F1088FEFC816D806E806F80669F0A6
:1019E000EF8DF8A1B082CE010E945D0AEF8DF8A1C3
:1019F000A082CE010E945D0AE8CFDF91CF911F91B6
:101A00000F91FF90EF90DF90CF90BF90AF909F909D
:101A10008F9008958F929F92AF92BF92CF92DF9254
:101A2000EF92FF920F931F93CF93DF935C014B01D3
:101A30006A01E90177FD52C0DC0118968D919C91F5
:101A4000681779070CF04AC0209709F447C037FFA0
:101A500007C0C9010196C80ED91ED195C195D109FB
:101A6000F50182859385C816D906C4F5A6014C0FE9
:101A70005D1F9A012150310937FD30C0D7FE03C0E8
:101A8000EA01D12CC12C281739071CF0EC01CC1924
:101A9000DD09D501ED91FC910284F385E02DC501AE
:101AA000099578018E0121E030E0A601B401C5015D
:101AB0000E945F0CD501ED91FC910688F789E02D1D
:101AC000C501DF91CF911F910F91FF90EF90DF90B3
:101AD000CF90BF90AF909F908F900994DF91CF915E
:101AE0001F910F91FF90EF90DF90CF90BF90AF903C
:101AF0009F908F9008958F929F92AF92BF92CF92B6
:101B0000DF92EF92FF920F931F93CF93DF935C01CD
:101B10006B014A01E90157FD52C0DC011A968D9113
:101B20009C91481759070CF04AC0209709F447C008
:101B300037FF07C0C9010196C80ED91ED195C195BE
:101B4000D109F50180859185C816D906C4F5A6018D
:101B50004C0F5D1F9A012150310937FD30C0D7FE6F
:101B600003C0EA01D12CC12C281739071CF0EC0165
:101B7000CC19DD09D501ED91FC910284F385E02DAE
:101B8000C5010995780101E010E09E01A401B601AC
:101B9000C5010E945F0CD501ED91FC910688F78983
:101BA000E02DC501DF91CF911F910F91FF90EF9034
:101BB000DF90CF90BF90AF909F908F900994DF916E
:101BC000CF911F910F91FF90EF90DF90CF90BF903A
:101BD000AF909F908F9008958F929F92AF92BF92F7
:101BE000CF92DF92EF92FF920F931F93CF93DF93E9
:101BF0004C016B015A01E901209709F46CC00115F1
:101C0000110509F468C037FF07C0C9010196C80E65
:101C1000D91ED195C195D109F401A085B185CA1607
:101C2000DB060CF058C017FF07C0C8010196A80ECC
:101C3000B91E119501951109F40182859385A816A5
:101C4000B9060CF048C0F601EC0FFD1FAF01415082
:101C5000510957FD40C0B501600F711F9B01215014
:101C6000310937FD38C0D7FE03C0EF01D12CC12C9C
:101C7000B7FE03C08B01B12CA12C4A175B071CF0E7
:101C8000ED01CC19DD09281739071CF08C010A1960
:101C90001B09D401ED91FC910284F385E02DC40170
:101CA00009959E01A501B601C4010E945F0CD401F3
:101CB000ED91FC910688F789E02DC401DF91CF9169
:101CC0001F910F91FF90EF90DF90CF90BF90AF905A
:101CD0009F908F900994DF91CF911F910F91FF906A
:101CE000EF90DF90CF90BF90AF909F908F9008952E
:101CF000EF92FF920F931F93CF93DF9377FD32C044
:101D0000DC011896ED91FC916E177F075CF52115AB
:101D1000310541F137FF07C0F90131964E0F5F1FC2
:101D2000319521953109DC011A96ED91FC914E1700
:101D30005F07C4F4EA01C20FD31FDE011197B7FD9C
:101D400011C057FF03C09E0150E040E0AE17BF072F
:101D50001CF09F01241B350B7801890121E030E044
:101D60000E945F0CDF91CF911F910F91FF90EF9038
:101D70000895EF92FF920F931F93CF93DF9357FD38
:101D800031C0DC011A96ED91FC914E175F0754F5B6
:101D90002115310539F137FF07C0F90131966E0F72
:101DA0007F1F319521953109DC011896ED91FC9149
:101DB0006E177F07BCF4EB01C20FD31FDE01119732
:101DC000B7FD10C077FF03C09E0170E060E0AE1762
:101DD000BF071CF09F01261B370B780101E010E0C4
:101DE0000E945F0CDF91CF911F910F91FF90EF90B8
:101DF00008958F929F92AF92BF92CF92DF92EF920F
:101E0000FF920F931F93CF93DF9347012115310565
:101E100009F44BC00115110509F447C037FF07C08D
:101E2000F90131966E0F7F1F319521953109DC0143
:101E30001896AD90BC906A157B05BCF517FF07C0DE
:101E4000F80131964E0F5F1F119501951109DC01C4
:101E50001A96ED91FC914E175F073CF56B01C20E8F
:101E6000D31EE6012197D7FD20C07A01E00EF11EB6
:101E7000D7011197B7FD19C077FF03C0960170E035
:101E800060E057FF03C0870150E040E0CA15DB0562
:101E90001CF09501261B370BAE17BF071CF08F01F6
:101EA000041B150B74010E945F0CDF91CF911F91F1
:101EB0000F91FF90EF90DF90CF90BF90AF909F90E9
:101EC0008F900895EF92FF920F931F93CF93DF931C
:101ED000EC0177FD22C08885998568177907ECF4B5
:101EE00057FD1BC08A859B8548175907B4F47901B3
:101EF000E881F98102A4F3A5E02D01E010E021E0E2
:101F000030E0CE010995B701CE01DF91CF911F914D
:101F10000F91FF90EF900C94090BDF91CF911F91DF
:101F20000F91FF90EF900895CF93DF93EC010E9403
:101F3000E90B8FA987FD06C0EB8DFC8D80819AA9E6
:101F400089238083DF91CF91089508958F929F9286
:101F5000AF92BF92CF92DF92EF92FF920F931F93B7
:101F6000CF93DF93EC01CB010196FB01F490FA943F
:101F7000FFEFFF1609F467C0FC0114916C01F2E059
:101F8000CF0ED11CFC013196E4900E2D0F77CE01BF
:101F90000E94E90B8FA987FD06C0EB8DFC8D808127
:101FA0009AA989238083ED8DFE8D80819CA9892348
:101FB0008083612FCE010E944A0BED8DFE8D8081C2
:101FC0009BA9892B8083F601912C812C10E080162F
:101FD0009106D4F48DA95F01823071F488A9882319
:101FE00059F0619171915F01CE010E94090B8FEF51
:101FF000881A980AF501EBCF2FEFA21AB20A649162
:10200000CE010E944A0BF3CF8FA987FD06C0EB8D4E
:10201000FC8D808199A9892B8083C601800F911F37
:10202000E7FEA5CF8C010F5F1F4FFC01649170E0AC
:102030006F3F710511F464EF71E090E080E00E9461
:102040002008C80194CFDF91CF911F910F91FF908D
:10205000EF90DF90CF90BF90AF909F908F900895BA
:102060000F931F93CF93DF93EC018B010E94E90B39
:102070008FA987FD06C0EB8DFC8D80819AA98923ED
:102080008083ED8DFE8D80819CA98923808366E30A
:10209000CE010E944A0BED8DFE8D80819BA9892B7C
:1020A00080838DA9F801823091F06081CE010E9479
:1020B0004A0B8FA987FD06C0EB8DFC8D808199A905
:1020C000892B8083DF91CF911F910F91089588A96B
:1020D000882359F360817181CE010E94090BE9CFF9
:1020E000CF93DF931F92CDB7DEB7FC0119826370E7
:1020F000668BDC01AD5BBF4F2C9130E011968C916B
:1021000090E0623031F06330C9F0613081F040EC32
:10211000498332AF21AF94AF83AFBE016F5F7F4F72
:10212000CF010E9430100F90DF91CF91089540EAC7
:10213000498334AF23AF92AF81AFEFCF40E6F8CF02
:10214000CF93DF931F92CDB7DEB7FC011982637086
:10215000668BDC01AA5BBF4F8C91982F9B7FAF01F0
:102160004C5B5F4F913031F493E0623008F091E0C6
:10217000DA019C939F012D5B3F4F623009F44CC004
:10218000633009F459C0613069F1823021F098EC74
:10219000843009F046C090EC99838130D1F480E816
:1021A00090E09387828791878087D9018C9190E016
:1021B00092AF81AFDA018C9190E094AF83AFBE0112
:1021C0006F5F7F4FCF010E9430100F90DF91CF9152
:1021D0000895843051F580EA90E09387828780E506
:1021E00090E0E1CF823019F098EA843061F590EA0E
:1021F0009983813091F580E890E09187808793877B
:102200008287D9018C9190E094AF83AFDA018C91F1
:1022100090E092AF81AFD3CF823039F08430D9F2E1
:1022200098E09983813009F4BACF80EA90E09387EF
:10223000828780E890E0B7CF823019F098E684304A
:1022400011F490E6D5CF99838130A9F280EA90E02D
:102250009187808780E890E0D2CF8430B9F780EA18
:1022600090E09187808780E590E0C9CFFC0187A945
:1022700087FD06C0A38DB48D9C9181A9892B8C9379
:1022800008950895FC016370668B84819581268191
:102290003781613039F0633029F091878087338747
:1022A00022870895318720879387828708952F9208
:1022B0003F924F925F926F927F928F929F92AF92D6
:1022C000BF92CF92DF92EF92FF920F931F93CF9323
:1022D000DF93CDB7DEB76A970FB6F894DEBF0FBEB7
:1022E000CDBF9A8F898F7A8369834A01D22E18874E
:1022F0000F833701BC2CDC0159962D913C915A97E4
:102300002115310509F015C118968D919C911997E9
:10231000681779070CF0D7C11A968D919C914817D0
:1023200059070CF0D0C14C2C512CB6E0CB9E600D5F
:10233000711D11247C876B87161617060CF0C3C11C
:10234000EA2DF0E0FA87E98793E0EE0FFF1F9A95F8
:10235000E1F7F88BEF87CF01840F951F1816190648
:102360000CF0B1C1A98DBA8D58968C91811104C021
:10237000BFEABD1508F4D394A98DBA8DED91FC91F7
:1023800011970284F385E02DCD010995B5E0DB9E20
:10239000C0011124E981FA81FC83EB83312C212CCB
:1023A0009C012E593E4F388F2F8B4A2D50E05E8B6B
:1023B0004D8BEF89F88DE20DF31D44919E828D8245
:1023C000D12CC12C69817A81620D731D7A8B698B46
:1023D000842F90E09C8B8B8BE98DFA8DA081B1814D
:1023E00040FF82C0F1E0BF126FC0AF126DC01C96FB
:1023F000ED91FC912F813885A4014C0D5D1D6989FB
:102400007A89898D9A8D0995EB89FC89F595E795EF
:102410004E2F5FEFC51AD50A6D817E818D899E8909
:10242000680F791F7E836D8398E0C916D10481F609
:10243000AFEF2A1A3A0AEB81FC81E40DF51DFC830B
:10244000EB83F5E02F16310409F0B3CF2F813885E7
:1024500026153705B9F0A98DBA8DED91FC91B1E043
:10246000BB1257C0AB1255C069817A816B5F7F4F39
:102470000088F189E02D830128E030E0A401898DF6
:102480009A8D0995A98DBA8DED91FC9111970688C9
:10249000F789E02DCD016A960FB6F894DEBF0FBE26
:1024A000CDBFDF91CF911F910F91FF90EF90DF9003
:1024B000CF90BF90AF909F908F907F906F905F90E4
:1024C0004F903F902F9009941E96ED91FC91EF80D4
:1024D000F88409851A8592014D815E816B817C812A
:1024E000898D9A8D099590CF2F81388526153705CE
:1024F00009F48ACF31E0B31207C0A31205C01C96BD
:10250000ED91FC91930178CF1E96ED91FC917301B2
:10251000E0CF6B857C85641975090684F785E02D0D
:1025200073010F8518899201A401898D9A8D0995EF
:10253000A9CFF90134969491329745915491D91AC3
:10254000B7E0DB9E400D511D1124F9012591349116
:102550003C8B2B8BFA0125903490FA0132967490C3
:1025600031963491398B329664903196449041E0A3
:102570004C1518F04A1508F07FC0662D062C000C8B
:10258000770B7C836B83842D042C000C990B9E832A
:102590008D83A98DBA8DED91FC9111970284F385FD
:1025A000E02DCD010995512CD12CC12CEA2DF0E064
:1025B000FA87E9872B2D30E03C872B87A401440D57
:1025C000511D47FC5A95588F4F8B69817A81660D52
:1025D000711D67FC7A957E876D877989C71608F02B
:1025E00051CF2C2D30E04D815E81420F531FA985C4
:1025F000BA854A9FC0014B9F900D5A9F900D1124A0
:10260000FC01E80DF91DF88BEF87852D612C4F89B2
:10261000588D420F531F5E8B4D8B671408F050C0CE
:1026200044244394480E877041F4C1010196EB891C
:10263000FC89E20DF31DD4901C01D7FE19C0A98DB1
:10264000BA8DED91FC91662D70E0B1E0BB1219C01E
:10265000AB1217C02D853E85620F731F0484F5856C
:10266000E02D2F8138854D895E89898D9A8D099558
:10267000DD0C6394842DD1CF1E821D821C821B82AF
:1026800088CF4B815C81640F751FAB85BC856A9FC9
:10269000C0016B9F900D7A9F900D112469817A8102
:1026A000680F791F0684F785E02DEF80F88409858F
:1026B0001A859D014F855889898D9A8D0995D8CFA6
:1026C000570CC3948ACF6A960FB6F894DEBF0FBE3C
:1026D000CDBFDF91CF911F910F91FF90EF90DF90D1
:1026E000CF90BF90AF909F908F907F906F905F90B2
:1026F0004F903F902F9008958F929F92AF92CF92DC
:10270000EF92FF920F931F93CF93DF93EC01262F4D
:10271000898D9A8D009709F051C06A30D1F41D86D9
:102720001C868D8948E0849F900111248E859F85A9
:10273000820F931F9F878E8781E090E0DF91CF917A
:102740001F910F91FF90EF90CF90AF909F908F903F
:1027500008956D3089F3CC88AD888F898823C1F0C6
:102760008C859D8536E0C39E800D911D1124488582
:1027700059854817590764F44E855F851D861C8668
:1027800038E0A39EC0011124840F951F9F878E8778
:10279000EA88FB88088919894E855F856C857D8567
:1027A000CE010E9457112C898C859D8546E0249F7F
:1027B000800D911D11249D878C87BECF6A3069F4EE
:1027C0001D861C86FC013896E4912D898E859F8597
:1027D000E29F800D911D1124ADCF6D3009F4ACCF77
:1027E000FC0134963491631708F4A6CF3296E49135
:1027F000E61708F4A1CFFC01329685909490462FFD
:10280000431B342F47E0349F800C911C1124F401AA
:10281000329634913196E4913323A9F1EE2399F164
:10282000CC88F4013596E491AD884F89442301F1B9
:102830000E2E000CFF0BE30FF11DCE9EA001CF9ECC
:10284000500D11246C857D85460F571F688579854D
:10285000641775076CF44E855F851D861C86FC0128
:102860003896E491AE9E400D511D11245F874E872E
:10287000EA88FB88088919894E855F856C857D8586
:10288000CE010E945711F4013496E4912C898C8575
:102890009D85E29F800D911D11248DCF6F927F92B7
:1028A0008F929F92AF92BF92CF92DF92EF92FF9260
:1028B0000F931F93CF93DF93EC016B015A01390102
:1028C0004801E881F9810284F385E02D0995E881CA
:1028D000F9810288F389E02D87019301A501B601F2
:1028E000CE010995A501480D591D41505109E881B6
:1028F000F9810288F389E02D9301B601CE01099593
:10290000E881F9810088F189E02D9401A501B601E3
:10291000CE010995C60CD71CB60161507109E8813A
:10292000F9810088F189E02D9401A501CE01099576
:10293000E881F9810688F789E02DCE01DF91CF91FA
:102940001F910F91FF90EF90DF90CF90BF90AF90CD
:102950009F908F907F906F9009946F927F928F924B
:102960009F92AF92BF92CF92DF92EF92FF920F931E
:102970001F93CF93DF935C01EB016A01490138019A
:102980008701DC01ED91FC916217730719F564165C
:1029900075062CF0962D872D3A01C92ED82E96015A
:1029A000261937092F5F3F4F048CF58DE02DA301C9
:1029B000BE01C5010995DF91CF911F910F91FF9045
:1029C000EF90DF90CF90BF90AF909F908F907F90CF
:1029D0006F9008954615570591F42617370724F090
:1029E000892D4B01C22FD82F9E01281939092F5F3D
:1029F0003F4F068CF78DE02DA601B401DACF02849B
:102A0000F385E02D0995D501ED91FC910488F589B8
:102A1000E02D83019401A601BE01C5010995D501F0
:102A2000ED91FC910688F789E02DC501DF91CF91EA
:102A30001F910F91FF90EF90DF90CF90BF90AF90DC
:102A40009F908F907F906F900994EF92FF920F93D9
:102A50001F93DC011A960D911C911B9718962D91CE
:102A60003C911997ED91FC9100A0F1A1E02D7B0123
:102A700050E040E070E060E009951F910F91FF90F9
:102A8000EF9008954F925F926F927F928F929F92F4
:102A9000AF92BF92CF92DF92EF92FF920F931F936C
:102AA000CF93DF936C012B015A0139014801DC01FE
:102AB000ED91FC910284F385E02D0995E201640C0F
:102AC000751CD601ED91FC91C615D7055CF4008804
:102AD000F189E02D87019401A501BE01C601099588
:102AE0002196EFCF0688F789E02DC601DF91CF91BF
:102AF0001F910F91FF90EF90DF90CF90BF90AF901C
:102B00009F908F907F906F905F904F9009948F92DD
:102B10009F92AF92BF92CF92DF92EF92FF920F936C
:102B20001F93CF93DF93EC015B014A016901E881B8
:102B3000F9810284F385E02D099595012C0D3D1D49
:102B400021503109E881F9810488F589E02D780167
:102B50008401A401B501CE010995E881F9810688B7
:102B6000F789E02DCE01DF91CF911F910F91FF905A
:102B7000EF90DF90CF90BF90AF909F908F9009948F
:102B80008F929F92AF92BF92CF92DF92EF92FF927D
:102B90000F931F93CF93DF93EC015B014A0169010F
:102BA0007801E881F9810284F385E02D0995C80C4C
:102BB000D91C860101501109E881F9810488F58941
:102BC000E02D9501A401B501CE010995E881F981B7
:102BD0000688F789E02DCE01DF91CF911F910F91EB
:102BE000FF90EF90DF90CF90BF90AF909F908F902D
:102BF0000994EF92FF920F931F93DC01ED91FC91EA
:102C000000A0F1A1E02D09951F910F91FF90EF9089
:102C100008950F931F93DC01ED91FC91068CF78DC5
:102C2000E02D09951F910F9108950F931F93DC01DB
:102C3000ED91FC91048CF58DE02D09951F910F917C
:102C40000895DC01ED91FC910084F185E02D09945B
:102C50002F923F924F925F926F927F928F929F92AC
:102C6000AF92BF92CF92DF92EF92FF920F931F939A
:102C7000CF93DF9300D000D000D0CDB7DEB73C01BA
:102C80006A013E832D83FC82EB825801A41AB50AA7
:102C9000B7FE03C0B194A194B1088D809E80861ABE
:102CA000970A97FE03C09194819491088A149B041B
:102CB0005CF0902F812F0D811E819D838E839C2D32
:102CC0008D2D6B01692F782F0C151D055CF09D81F2
:102CD0008E817E836D83692F782F902F812F8601BF
:102CE000C92ED82E1601201A310A2B012D813E81C2
:102CF000421A530A57FE03C051944194510871017E
:102D000037FE03C03FEFE31AF30AF594E7948D8191
:102D10009E81861797075CF5A1E0B0E0BA83A9838E
:102D2000C016D1064CF1D301ED91FC910484F585D8
:102D3000E02D2B813C81A8016D817E818A149B044A
:102D40001CF04D815E81B801C3010995E418F508B6
:102D5000F7FE0AC02D813E8189819A81280F391F93
:102D60003E832D83E20CF31C0F5F1F4FD9CF2FEF53
:102D70003FEF3A832983D4CF26960FB6F894DEBF6F
:102D80000FBECDBFDF91CF911F910F91FF90EF90BC
:102D9000DF90CF90BF90AF909F908F907F906F907B
:102DA0005F904F903F902F900895089590E080E0BD
:102DB000089587309105D8F4FC01EF51F94E0C9439
:102DC000EC2FF816E816FB16EB16EE16F116F416B5
:102DD00088E891E0089586E991E008958DE991E011
:102DE000089588EA91E0089583EB91E008950895AD
:102DF00081E891E008958FE891E00895089508959D
:102E00000F931F93CF93DF93EC010E945308AB0104
:102E1000BC0188819981AA81BB810C811D812E8191
:102E20003F81801B910BA20BB30B840F951FA61F34
:102E3000B71F88839983AA83BB830E9453086C833E
:102E40007D838E839F83DF91CF911F910F91089592
:102E5000CF93DF93EC0188819981AA81BB81892B73
:102E60008A2B8B2B79F48A859B850E940C0688819E
:102E70009981AA81BB810196A11DB11D8883998387
:102E8000AA83BB8388819981AA81BB8186399105F8
:102E9000A105B10528F4CE01DF91CF910C94001764
:102EA00082E00E944C0589858F5F823040F48987DB
:102EB000188219821A821B82DF91CF910895198698
:102EC000F7CFFC0180819181A281B3818639910580
:102ED000A105B10518F4CF010C940017808581502D
:102EE000808781858F5F823030F4818710821182E4
:102EF0001282138208951186F9CF1F93CF93DF9327
:102F000000D000D0CDB7DEB784E093E00E9400048B
:102F100084E093E00E94000410E08A3379F0E1E05D
:102F2000F0E0EC0FFD1FE10FF11D17FDFA95808316
:102F30001F5F84E093E00E940004EFCFCE01019672
:102F40000E94B12A182F84E093E00E94000480536D
:102F5000990B8230910520F4682F812F0E941E0565
:102F600084E093E00E9400048A3011F08D30C1F7B4
:102F700084E093E00E9414048A3021F484E093E01A
:102F80000E9400040F900F900F900F90DF91CF914F
:102F90001F910895FB0101900020E9F73197AF01DF
:102FA000461B570BDC01ED91FC910280F381E02D73
:102FB00009948F929F92AF92BF920F931F93CF93DA
:102FC000DF93CDB7DEB7A1970FB6F894DEBF0FBE83
:102FD000CDBF19A2423008F44AE08E010F5D1F4FA9
:102FE000842E912CB12CA12CA50194010E94322E8B
:102FF000E62FB901CA01EA3004F5E05DD801EE938D
:103000008D01232B242B252B79F790E080E010975E
:1030100029F0BD0184E093E00E94CA17A1960FB683
:10302000F894DEBF0FBECDBFDF91CF911F910F91FE
:10303000BF90AF909F908F900895E95CDFCF0F9382
:103040001F93CF93DF938C01D0E0C0E06115710531
:1030500019F00E94CA17EC016FEB71E0C8010E94E1
:10306000CA178C0F9D1FDF91CF911F910F9108956B
:103070006115710511F00C94CA1790E080E0089575
:10308000EBEFF2E010821182128213821086E0913F
:103090003E04F0913F04938F828F62EC71E084E0F4
:1030A00093E00E943818E0913E04F0913F04828D35
:1030B000938D0E94D916BC0184E093E00C941F18F4
:1030C000BC0180913404909135040C9438180F930E
:1030D0001F930E94530828EE33E040E050E00E9426
:1030E000322E672B682B692B99F466EC71E084E033
:1030F00093E00E943818E0913E04F0913F04828DE5
:10310000938D0E94D916BC0184E093E00E941F18A1
:103110000E9453080091FF021091000320910103C7
:1031200030910203601B710B820B930B6093FB02C7
:103130007093FC028093FD029093FE020E9453085C
:103140006093FF0270930003809301039093020346
:103150001F910F9108950E943A31CF92DF92EF9222
:10316000FF920F931F93CF93DF938C01EB01FB0131
:10317000349680E2DF011D928A95E9F784E290E0BF
:10318000A0E0B0E088839983AA83BB83F80185819E
:103190009681A781B0858C839D83AE83BF838CE0AD
:1031A00090E0A0E0B0E088879987AA87BB870E945B
:1031B0005308688B798B8A8B9B8BD80113960D9162
:1031C0001C91C8010E945909882349F0F8018681A1
:1031D0008B3028F08D3040F08551823070F160E006
:1031E00070E080EC9FE71BC0618170E090E080E0C0
:1031F0000E94152D2DEC3CEC4CEC5DE30E94742DEF
:103200006B017C01F801608170E090E080E00E9439
:10321000152D9B01AC01C701B6010E94BA2E6C8B23
:103220007D8B8E8B9F8B81E0DF91CF911F910F91D2
:10323000FF90EF90DF90CF900895608171817627A5
:103240006727762790E080E00E94132D2DEC3CEC60
:103250004CEC5DE30E94742DE2CF8F929F92AF926F
:10326000BF92EF92FF921F93CF93DF937C01EB010C
:10327000FB01349680E2DF011D928A95E9F784E232
:1032800090E0A0E0B0E088839983AA83BB83F70134
:1032900085819681A781B0858C839D83AE83BF8312
:1032A0008DE090E0A0E0B0E088879987AA87BB878F
:1032B0000E945308688B798B8A8B9B8BD70113965E
:1032C000ED90FC90C7010E945909882341F0F70155
:1032D00086818C3009F455C038F48B30E1F060E021
:1032E00070E080EC9FE73EC085518230C0F71281CC
:1032F000612F70E0762F662766277F778381682BA2
:1033000090E080E00E94132D2DEC3CEC4CEC5DE352
:103310000E94742D51C0628170E090E080E00E94B4
:10332000132D4B015C01F701138117FF0AC0AC019B
:103330009B0160E070E080E89FEB0E94B92E4B019A
:103340005C011F70612F70E090E080E00E94152DFD
:103350002DEC3CEC4CEC5DE30E94742DA501940136
:103360000E94BA2E6C8B7D8B8E8B9F8B81E0DF91C0
:10337000CF911F91FF90EF90BF90AF909F908F9053
:1033800008951281612F70E090E080E00E94132D7B
:103390004B015C01F70163816F7070E090E080E0A9
:1033A0000E94152D2DEC3CEC4CEC5DE30E94742D3D
:1033B000A50194010E94BA2E17FFD4CF9058D2CF06
:1033C000CF93DF93EB01FC0183894BE050E063ED89
:1033D00071E08C30C1F058F44BE050E06DEC71E0DE
:1033E0008B3089F04BE050E065EE71E00CC04BE0B3
:1033F00050E069ED71E0853131F04BE050E06FED68
:1034000071E0863179F7CE010E943F311B86DF9152
:10341000CF9108950F931F93CF93DF938C01EB010E
:1034200088E2DB011D928A95E9F7F8018381948196
:103430000E94E01981E090E0A0E0B0E08C879D87D9
:10344000AE87BF87F80185819681A781B085888B7B
:10345000998BAA8BBB8B8CE090E0A0E0B0E08C8BCA
:103460009D8BAE8BBF8BBE01838194810E940C0922
:10347000D8011396ED91FC9183898C3009F441C0F9
:1034800078F48B3009F1188E198E1A8E1B8E1C8ED3
:103490001D8E1E8E1F8E18A219A21AA21BA22CC04E
:1034A0008551823080F780E090E0A8ECB2E4888F0C
:1034B000998FAA8FBB8F1C8E1D8E1E8E1F8E8DEC3A
:1034C0009CECACECBDE314C080E090E0A0EAB2E478
:1034D000888F998FAA8FBB8F80E090E0A0EAB1E43B
:1034E0008C8F9D8FAE8FBF8F80E090E0A0EAB0E41C
:1034F00088A399A3AAA3BBA3DF91CF911F910F919A
:10350000089580E090E0AEEBB2E4E2CF0F931F931A
:10351000CF93DF938C01EB0188E2DB011D928A954A
:10352000E9F7F801838194810E94E01981E090E03D
:10353000A0E0B0E08C879D87AE87BF87F8018581CA
:103540009681A781B085888B998BAA8BBB8B8DE0E8
:1035500090E0A0E0B0E08C8B9D8BAE8BBF8BBE016A
:10356000838194810E940C09D8011396ED91FC91FE
:1035700083898C3091F178F48B30B1F0188E198EEC
:103580001A8E1B8E1C8E1D8E1E8E1F8E18A219A2C7
:103590001AA21BA21DC08531A9F1863179F780E0FE
:1035A00090E0AAEFB2E432C080E090E0A8E4B2E498
:1035B000888F998FAA8FBB8F1C8E1D8E1E8E1F8E9B
:1035C00080E090E0A0E0B0E488A399A3AAA3BBA305
:1035D000DF91CF911F910F91089580E090E0A0E7D7
:1035E000B2E4888F998FAA8FBB8F80E090E0A0EA29
:1035F000B1EC8C8F9D8FAE8FBF8F80E090E0A0E00C
:10360000BFE3E2CF80E090E0A0EAB2E4888F998F38
:10361000AA8FBB8F80E090E0A0E2B2EC8C8F9D8FF0
:10362000AE8FBF8F8DEC9CECACECBDE3CDCFCF92D9
:10363000DF92EF92FF920F931F93CF93DF93EC01F2
:103640006A017B01C114D104E104F10439F4C12CF5
:1036500048E4D42E48EEE42EFF24F394FE01FF96B6
:10366000C082D182E282F38281E28DAF80E28EAFAE
:10367000369610818FA987FD07C061E00E9478050A
:1036800061E08FA90E941E0561E088AD0E94780567
:1036900061E088AD0E941E058DA9811182C040E0C5
:1036A00052E16AE770E0C416D506E606F70640F474
:1036B00076956795579547958F5F8630A1F787E098
:1036C000212F2C702065982F9695922B99A3809589
:1036D00081708AA3812F90E0B0E0A0E08BA39CA32F
:1036E000ADA3BEA31FB7F89480919602811127C0A5
:1036F000E6E2F7E08491E8E0F7E09491E82FF0E06B
:10370000EE0FFF1FEE59F94FA591B491EC91E9230B
:1037100021F461E08AE00E941E0561E08AE00E94D7
:1037200078058CB580618CBD8CB580648CBD61E002
:103730008DE00E94780561E08BE00E947805809121
:1037400096028F5F809396021FBF8EA987FD75C07A
:1037500061E00E94780561E08EA90E941E0564E682
:1037600070E080E090E00E94200860E08EA90E9456
:103770001E0564E670E080E090E00E94200861E0B1
:103780008EA90E941E0568EC70E080E090E0DF9159
:10379000CF911F910F91FF90EF90DF90CF900C94FD
:1037A00020080CE117E0F12C8130B9F461E08AA522
:1037B0000E94780560E08AA50E941E0561E08CA544
:1037C0000E94780560E08CA50E941E058BA587FDF0
:1037D000BCCF60E00E947805B8CFF8018491E82F53
:1037E000F0E0EE0FFF1FEE5EF84F859194912F8D64
:1037F00038A12817390741F461E08F2D0E94780520
:1038000060E08F2D0E941E05F3940F5F1F4FF4E1BF
:10381000FF12E3CF61E08EA50E94780561E08EA5DE
:103820000E941E058FA587FD90CF61E00E9478055C
:1038300061E08FA50E941E0588CFDF91CF911F9177
:103840000F91FF90EF90DF90CF9008950C94B130DE
:103850000C94B1301F920F920FB60F9211242F9338
:103860003F934F935F936F937F938F939F93AF9308
:10387000BF93EF93FF938091EF029091F002A0919C
:10388000F102B091F202892B8A2B8B2BD1F190910E
:10389000EA02E091EB02F091EC02808189278083BB
:1038A0008091EF029091F002A091F102B091F202AA
:1038B000181619061A061B069CF48091EF029091C7
:1038C000F002A091F102B091F2020197A109B109B1
:1038D0008093EF029093F002A093F102B093F20272
:1038E000FF91EF91BF91AF919F918F917F916F91D8
:1038F0005F914F913F912F910F900FBE0F901F90AE
:103900001895809100010E944C05EACF1F920F92FA
:103910000FB60F9211242F933F934F935F936F93A2
:103920007F938F939F93AF93BF93EF93FF9384E025
:1039300093E00E944204FF91EF91BF91AF919F915C
:103940008F917F916F915F914F913F912F910F9048
:103950000FBE0F901F9018951F920F920FB60F92E7
:1039600011242F938F939F93EF93FF93E091140370
:10397000F09115038081E0911A03F0911B0382FD01
:103980001BC0908180911D038F5F8F7320911E0358
:10399000821741F0E0911D03F0E0EC5FFC4F958F42
:1039A00080931D03FF91EF919F918F912F910F9025
:1039B0000FBE0F901F9018958081F4CF1F920F9229
:1039C0000FB60F9211242F933F938F939F93AF9332
:1039D000BF938091D8029091D902A091DA02B09160
:1039E000DB023091D70223E0230F2D3758F50196E3
:1039F000A11DB11D2093D7028093D8029093D902C4
:103A0000A093DA02B093DB028091DC029091DD0298
:103A1000A091DE02B091DF020196A11DB11D80933D
:103A2000DC029093DD02A093DE02B093DF02BF912F
:103A3000AF919F918F913F912F910F900FBE0F905B
:103A40001F90189526E8230F0296A11DB11DD2CF15
:103A50001F920F920FB60F9211242F933F934F9303
:103A60005F936F937F938F939F93AF93BF93EF93E6
:103A7000FF93E091E202F091E302309749F0A685CE
:103A8000B7858585968D91FF14C09C918923A1F4FB
:103A9000FF91EF91BF91AF919F918F917F916F9126
:103AA0005F914F913F912F910F900FBE0F901F90FC
:103AB00018959C91892361F7A389B4899C91858984
:103AC000809589238C93868997890197F1F7608D7A
:103AD000718DA685B785558538E020E0CB0101972B
:103AE000F1F7822F90E095958795282F4C914523EB
:103AF00009F02068315091F7868D81FD20958091E5
:103B0000E10290E001968F7399273091E002381717
:103B100099F0A091E102B0E0A956BD4F2C9380939B
:103B2000E102828D938D0197F1F7A389B4898C917D
:103B30009589892B8C93ACCF868D8160868FF1CF50
:103B4000CF92DF92EF92FF921F93CF93DF93109269
:103B500007031092060398EEC92E93E0D92EE12CAC
:103B6000F12CC0920803D0920903E0920A03F0926C
:103B70000B0385E191E0909305038093040385ECAA
:103B800090E0909311038093100384EC90E0909365
:103B900013038093120380EC90E0909315038093BD
:103BA000140381EC90E0909317038093160382EC4A
:103BB00090E0909319038093180386EC90E0909323
:103BC0001B0380931A0310921D0310921E03109280
:103BD0001F03109220031092A7031092A8031092C3
:103BE000A9031092AA031092AB031092AC03109297
:103BF000AD031092AE031092AF031092B003109277
:103C0000B1031092B2031092B3031092B403109256
:103C1000B5031092B6038CE190E00E9415302CE1C0
:103C2000DC011D922A95E9F790933F0480933E04AE
:103C3000C8E0E6E3F4E0DF018C2F1D928A95E9F7F6
:103C40008AE0E7E0F1E0AAE2B4E001900D928A9503
:103C5000E1F787E490E00E941530DC0113961C9296
:103C60001E92129720E830E015963C932E931497FD
:103C700080EA90E017969C938E93169719963C9342
:103C80002E9318971B969C938E931A9756961C9278
:103C900056971D961C921E921C971F961C921E9260
:103CA0001E9711E055961C93559754961C93549764
:103CB0008FEF9FEF53969C938E93529751969C93C0
:103CC0008E93509757961C93579758961C925897D7
:103CD0005A961C921E925997D5961C92D59789E0B8
:103CE000D6968C93D6978AE0D7968C93D797D8960A
:103CF000CC93D897DA961C921E92D997DC961C9298
:103D00001E92DB97DD961C92DD97DE961C92DE9765
:103D1000FD01FF96108211821282138287EE93E0DA
:103D200090969C938E935F97E4E2F7E0E491F0E045
:103D3000EE0FFF1FEE5EF84F859194915E969C9377
:103D40008E935D97E6E0F7E08491D3968C93D397BA
:103D5000E6E2F7E0E491F0E0EE0FFF1FEE5EF84FD1
:103D6000259134915C963C932E935B97E8E0F7E0C5
:103D7000E491D196EC93D197E095D296EC93D297BB
:103D8000E82FE095D496EC93D497FD01ED5BFF4FBF
:103D90001082319610823196108285E591E011965D
:103DA0009C938E93B0933504A093340486E1E4E1B0
:103DB000F4E0DF011D928A95E9F710920C0410924D
:103DC0000D0410920E0410920F0410921004109221
:103DD0001104109212041092130486E290E00E94E3
:103DE0001530DC018FE015968C9315978BE01696B5
:103DF0008C931697EDE0F7E0E4911796EC93179704
:103E0000EBE2F7E0E4911896EC93189740E85EE354
:103E100060E070E01D964D935D936D937C93509799
:103E200053968C93539787E491E055969C938E9389
:103E300054970A2E1B2E58961C920E9211245797B7
:103E40004FEF5FEFBA0159964D935D936D937C935D
:103E50005C9789E391E05E969C938E935D970A2E22
:103E60001B2E91961C920E921124909792964D9330
:103E70005D936D937C939597B0930B04A0930A0484
:103E800082E2E8EEF3E0DF011D928A95E9F78FE127
:103E900090E00E941530EC011B821A82CC82DD82F8
:103EA000EE82FF8287E291E0998388831F8A1E8ACF
:103EB000198E188E1B8E1A8E1D8E1C8E6E8D6E7F27
:103EC0006D7F6E8F66956170612783E00E941E058D
:103ED00061E083E00E947805E1E0F7E0E491E88B9F
:103EE000EFE1F7E0E491F0E0EE0FFF1FEE5EF84F38
:103EF000859194919A8B898B60E084E00E9478058B
:103F00008E8D81FD04C061E084E00E941E0584E086
:103F10008C87E2E0F7E0E491ED87E0E2F7E0E491FE
:103F2000F0E0EE0FFF1FEC50F94F859194919F87C1
:103F30008E87D093E903C093E803DF91CF911F915F
:103F4000FF90EF90DF90CF900895CF93DF93CDB7A0
:103F5000DEB7E7970FB6F894DEBF0FBECDBF7894FB
:103F600084B5826084BD84B5816084BD85B582607E
:103F700085BD85B5816085BD80916E00816080932F
:103F80006E00109281008091810082608093810098
:103F900080918100816080938100809180008160A8
:103FA000809380008091B10084608093B100809103
:103FB000B00081608093B00080917A00846080932B
:103FC0007A0080917A00826080937A0080917A00F2
:103FD000816080937A0080917A00806880937A0073
:103FE0001092C1001092E3031092E4031092E503D3
:103FF0001092E6031092A3031092A4031092A5035B
:104000001092A6030E9453086B017C014B015C01D6
:1040100028EB820E2BE0921EA11CB11C0E945308BB
:104020006C157D058E059F0528F086169706A80657
:10403000B906A0F768EE73E080E090E00E942008E7
:10404000E0911403F091150382E08083E091100366
:10405000F09111031082E0911203F091130380E1BB
:10406000808310921C03E0911803F091190386E0FD
:104070008083E0911603F091170380818061808333
:10408000E0911603F0911703808188608083E091AE
:104090001603F0911703808180688083E0911603F6
:1040A000F091170380818F7D80830E945308609375
:1040B000A3037093A4038093A5039093A6036AEED1
:1040C00071E084E093E00E9438180E9453086B016D
:1040D0007C014B015C013AE0830E911CA11CB11CD8
:1040E0000E9453086C157D058E059F0528F08616E5
:1040F0009706A806B906A0F7FF24F394F092B70339
:104100000E9453086093A3037093A4038093A503B4
:104110009093A6036BEF71E084E093E00E9438185F
:1041200061E082E00E94780561E085E00E94780508
:1041300060E086E00E947805009134041091350417
:10414000D801ED91FC9100A4F1A5E02D40E050E0F4
:10415000BA01C801099564EA76E0C8010E94A60F79
:1041600067E976E0C8010E94A60FF801ED5BFF4FFA
:1041700082E080833196F0826CE676E0C8010E948E
:10418000A60FF801EA5BFF4F1082D801ED91FC9178
:10419000008CF18DE02D60E0C80109958091340418
:1041A00090913504DC01ED91FC9102A0F3A1E02D8A
:1041B00070E060E009950E94530860933A047093A0
:1041C0003B0480933C0490933D0462E072E0809154
:1041D0003404909135040E941F1888EB9BE0A0E006
:1041E000B0E080931E0490931F04A0932004B0932A
:1041F000210483E192E00E9460180E9453086093BA
:1042000018047093190480931A0490931B0487E791
:1042100092E00E94601880911E0490911F040E94F9
:104220000C0687E792E00E9460186CE271E080E083
:1042300090E00E94200887E792E00E94601882E0E8
:104240000E944C0588E297E1909323048093220416
:10425000109225041092240481E697E1909327049C
:104260008093260410922904109228046EE072E0D4
:1042700080913404909135040E941F188DEC91E0D8
:104280000E9460180E9453086093100470931104F8
:1042900080931204909313046BE072E080913404D5
:1042A000909135040E941F18E091E803F091E90312
:1042B000138E128E118E108E178A168A8DE991E058
:1042C000958F848F8485863108F03DC02DEB30E0DA
:1042D000378B268B2BE931E0318F208F2CE231E0B8
:1042E000338F228F90916800883008F4A0C221E0BB
:1042F0008E3008F420E081E001C0880F2A95EAF7AB
:10430000892B8093680094852DE630E0983050F03A
:104310002BE630E09E3030F02CE630E0963110F0A5
:1043200030E020E0348B238B292F30E0983008F0E8
:1043300080C281E001C0880F9A95EAF7858B848D51
:10434000958D0197F1F7828D938D892B41F14091E5
:10435000E2025091E302E417F50709F14115510516
:1043600069F0DA0153962D913C91D9019C91DA01C3
:1043700055968C9180958923D9018C93868D8E7F5B
:10438000868F1092E1021092E002F093E302E09334
:10439000E202A389B4898C919589892B8C9388E159
:1043A00092E00E9460180AE010E068EE73E080E09E
:1043B00090E00E94200887E792E00E946018015078
:1043C000110999F78091E8039091E903DC01ED91DF
:1043D000FC910084F185E02D09958C0168EE73E075
:1043E00080E090E00E942008809134049091350490
:1043F0006EE072E00032110514F46EE172E00E948A
:104400001F1884E292E00E9460188FEF90E00E94F3
:10441000B40503E010E068EE73E080E090E00E94F5
:10442000200887E792E00E9460180150110999F76F
:1044300090E080E00E94B4058EE092E00E94601857
:1044400068EE73E080E090E00E9420080E9453082C
:104450006093FF0270930003809301039093020323
:1044600090E080E00E94401868EE73E080E090E009
:104470000E9420088091340490913504DC01ED9174
:10448000FC9102A0F3A1E02D70E060E0099580911D
:10449000340490913504DC01ED91FC9106A0F7A164
:1044A000E02DEE24EA94FE2C02E110E029E730E052
:1044B00046E050E063E070E009958091340490910B
:1044C0003504DC01ED91FC9106A0F7A1E02D28E276
:1044D00030E046E050E06CE270E0099580913404F1
:1044E00090913504DC01ED91FC9106A0F7A1E02D3F
:1044F00029E730E048E150E063E070E00995809101
:10450000340490913504DC01ED91FC9106A0F7A1F3
:10451000E02D28E230E048E150E06CE270E00995DF
:1045200080913404909135042DE030E0FC01358712
:1045300024870BE010E01787068768E272E00E948C
:104540003818809134049091350426E330E0DC0182
:104550001D963C932E931C971F961C930E931E97AB
:104560006DE272E00E943818809134049091350415
:104570002DE530E0FC01358724871787068762E345
:1045800072E00E9438188091340490913504DC0167
:10459000ED91FC9106A0F7A1E02D08E110E02AE7DB
:1045A00030E04DE250E063E070E009958091340422
:1045B00090913504FC011586148620E530E037879C
:1045C000268767E372E00E941F1866E472E080911C
:1045D0003404909135040E941F1880913404909106
:1045E000350423E030E0DC011D963C932E931C97AC
:1045F00029E630E01F963C932E931E9764E572E007
:104600000E9438188091340490913504DC01ED91BA
:10461000FC9104A0F5A1E02D08E710E02AE730E0C6
:1046200048E750E063E070E009950E945308672B6B
:10463000682B692B09F40AC10E9453080091E60215
:104640001091E7022091E8023091E90260177107AA
:104650008207930708F448C20091E6021091E7022E
:104660002091E8023091E9026B017C01C01AD10A65
:10467000E20AF30A970186010A3F11052105310577
:1046800008F4ECC06093E6027093E7028093E802BE
:104690009093E90224EF31E040E050E02093AF0333
:1046A0003093B0034093B1035093B2031092B3031D
:1046B0001092B4031092B5031092B6038091A70331
:1046C0009091A803A091A903B091AA038093AB0392
:1046D0009093AC03A093AD03B093AE030E94530834
:1046E0006093A7037093A8038093A9039093AA03F0
:1046F00084E093E00E941404843611F40E947D1734
:104700000E9453086093A3037093A4038093A503AE
:104710009093A6030E9453084B015C016CE572E084
:1047200084E093E00E9438184AE061E070E080E0A5
:1047300090E00E94D91763E672E084E093E00E9463
:1047400038184AE0C501B4010E94D91765E672E045
:1047500084E093E00E9438188091A7039091A80309
:10476000A091A903B091AA0375016401C81AD90ADE
:10477000EA0AFB0AC701B6014AE00E94D91765E6BA
:1047800072E084E093E00E9438186091A703709172
:10479000A8038091A9039091AA030091AB03109103
:1047A000AC032091AD033091AE03601B710B820B03
:1047B000930B4AE00E94D91767E672E084E093E029
:1047C0000E9438180E9453084AE00E94D91769E6EF
:1047D00072E084E093E00E941F180E9453084B018E
:1047E0005C012B013C0125E0420E511C611C711C37
:1047F0000E945308681579058A059B0528F046161E
:10480000570668067906A0F784E093E00E94140436
:10481000843611F40E947D170E9453086093A70309
:104820007093A8038093A9039093AA0317C084E010
:1048300067CD9E3040F42850310981E001C0880FD7
:104840002A95EAF77BCD2E503109F7CF0E94530805
:10485000623071058105910508F0EECE8091360435
:1048600090913704A0913804B0913904883E934068
:10487000A105B10508F417C2809134049091350464
:10488000DC01ED91FC9100A0F1A1E02DA0913E048E
:10489000B0913F0458962D913C91E12CFF24FA945D
:1048A000232B11F0F12CE12C0CE010E024E230E09D
:1048B0004AE150E066E070E00995E0913404F0913F
:1048C000350486E090E0958784875DE1C52ED12C84
:1048D000D786C686E0913E04F0913F0460857185DD
:1048E000828593858E01025D1F4F21E045E00E9485
:1048F000932AB80180913404909135040E943818AD
:104900008091340490913504DC01ED91FC9100A07C
:10491000F1A1E02DA0913E04B0913F0458962D9155
:104920003C91E12CFF24FA942130310511F0F12C57
:10493000E12C0CE010E024E230E04AE150E06FE2CC
:1049400070E00995E0913404F09135048FE290E035
:10495000958784873DE1C32ED12CD786C686E0910A
:104960003E04F0913F0464857585868597858E01A8
:104970000B5D1F4F21E045E00E94932AB801809112
:104980003404909135040E94381880913404909139
:104990003504DC01ED91FC9100A0F1A1E02DA09186
:1049A0003E04B0913F0458962D913C91F12CE12C9E
:1049B0002230310519F4E12CFF24FA940CE010E0C8
:1049C00024E230E04AE150E064E570E00995E091CE
:1049D0003404F091350417E5C12ED12CD586C48658
:1049E0000DE1E02EF12CF786E686E0913E04F09191
:1049F0003F0460897189828993898E010F5F1F4FFF
:104A000021E045E00E94932AB801809134049091FE
:104A100035040E943818E0913E04F0913F04648907
:104A20007589868997890E94982FDB016536710503
:104A300014F0A4E6B0E0B7FF02C0B0E0A0E028E7C1
:104A400030E00E94FA2F24E630E040E050E00E947F
:104A5000542E1901C90168E170E00E94D82F6B0142
:104A60008091340490913504DC01ED91FC9100A01B
:104A7000F1A1E02DF12CE12C06E110E028E730E077
:104A80004EE250E064E070E00995EAE2F4E0FDAB4C
:104A9000ECABB4E08B2E912C712C612CA0903404E3
:104AA000B0903504D501ED91FC91E0A0F1A0FFAAF2
:104AB000EEAAC614D70409F1ACA9BDA9ED90FD90EA
:104AC000BDABACAB06E110E028E130E04EE250E0D7
:104AD000B401C501EEA9FFA90995FFEF6F1A7F0A7E
:104AE00028E1820E911CDACF6093E6027093E70210
:104AF0008093E8029093E902AFCD35E0C316D1046C
:104B000069F1F601EE0FFF1FE65DFB4FE080F180DB
:104B1000B101330C880B990B0E94152D20E030E079
:104B200040E05FE30E94BA2E0E94982F28E130E017
:104B300040E050E00E94542E48E14C9D90014D9D74
:104B4000300D1124F901349606E110E09B014EE28C
:104B500050E0BF01C501EEA9FFA90995A091340459
:104B6000B091350478E2C72ED12C1D96DC92CE92FE
:104B70001C97E0E5EE2EF12C1F96FC92EE921E970C
:104B8000ED91FC91119700A0F1A1E02DF12CE12C09
:104B900008E010E028E230E040E550E068E270E034
:104BA000CD010995E0913E04F0913F04608171814F
:104BB000828193818E010B5D1F4F21E044E00E94B2
:104BC000932AB80180913404909135040E943818DA
:104BD000A0913404B09135041D96DC92CE921C97BE
:104BE00028E530E01F963C932E931E97ED91FC91A3
:104BF000119700A0F1A1E02D08E010E028E230E0DC
:104C000048E550E068E270E0CD010995E0913E048E
:104C1000F0913F0464817581868197818E010F5FD9
:104C20001F4F21E044E00E94932AB8018091340490
:104C3000909135040E943818A0913404B091350445
:104C400087E390E01D969C938E931C9789E690E0F5
:104C50001F969C938E931E97ED91FC91119700A047
:104C6000F1A1E02D08E010E021E430E049E650E059
:104C700067E370E0CD010995E0913E04F0913F04B7
:104C8000828D938D0E94D916BC018091340490913D
:104C900035040E943818109236041092370410928E
:104CA0003804109239040E945308AB01BC01809172
:104CB000360490913704A0913804B09139040091E2
:104CC0003A0410913B0420913C0430913D04801B38
:104CD000910BA20BB30B840F951FA61FB71F8093D8
:104CE000360490933704A0933804B09339040E949B
:104CF000530860933A0470933B0480933C04909370
:104D00003D0480911C04882331F120911D0430E082
:104D1000F901EE0FFF1FEE0FFF1FEC5DFB4F40810F
:104D20005181CA01959587958C5E9B4F220F331F49
:104D3000220F331FF901EC5EFB4F0684F785E02D4F
:104D400040FF08C0DC012D913C91E20FF31F019060
:104D5000F081E02D09950E94FA04892B09F445C0E1
:104D60008091E502811141C011E01093E50260E7F6
:104D700072E084E093E00E941F1810931C041092CC
:104D80001D0410921404109215041092160410922F
:104D900017040E94530860931804709319048093B9
:104DA0001A0490931B0460E085E00E941E05809128
:104DB000E4028F5F873090F48093E402E091E40294
:104DC000E73098F4F0E0E951F94D0C94EC2FF1261E
:104DD000A427A727AA27AD27B027B3271092E4025C
:104DE000EDCF90E080E00E9440180E94FA04019705
:104DF00061F08091E502882341F01092E50269E7B5
:104E000072E084E093E00E941F1880910C0490915E
:104E10000D04A0910E04B0910F048A3F9105A105E5
:104E2000B10508F4A3C0E0910A04F0910B0486894F
:104E30008FA387E491E09EA38DA38789908D99A786
:104E400088A7818D928DA38DB48D8AA79BA7ACA7CF
:104E5000BDA7BE016F5F7F4FCE0185960E942D19C1
:104E600000913E0410913F048D899E89AF89B88DD1
:104E7000F80180839183A283B383E0910A04F091C7
:104E80000B04878D8FA389E391E09EA38DA380A15E
:104E900091A199A788A782A193A1A4A1B5A18AA74E
:104EA0009BA7ACA7BDA7BE016F5F7F4FCE018596C4
:104EB0000E94AD188D899E89AF89B88DF8018483D1
:104EC0009583A683B78310920C0410920D04109260
:104ED0000E0410920F048091E8039091E903DC0125
:104EE000ED91FC910084F185E02D099580970CF4FB
:104EF00052C18091E8039091E903DC01ED91FC91AE
:104F00000284F385E02D09958093EA03823409F445
:104F10005CC08091E8039091E903DC01ED91FC9184
:104F20000484F585E02D09958234910509F433C197
:104F30008091E8039091E903DC01ED91FC910284FA
:104F4000F385E02D0995E5CF81E090E04CCF82E03C
:104F500090E049CF83E090E046CF84E090E043CFFB
:104F600085E090E040CF86E090E03DCF0E9453087E
:104F7000AB01BC0180910C0490910D04A0910E0432
:104F8000B0910F04009110041091110420911204AB
:104F900030911304801B910BA20BB30B840F951F50
:104FA000A61FB71F80930C0490930D04A0930E04CA
:104FB000B0930F040E94530860931004709311047F
:104FC000809312049093130486CF8091E80390910C
:104FD000E903DC01ED91FC910484F585E02D099550
:104FE0008093EB038D3409F0D6C08091E803909153
:104FF000E903DC01ED91FC910284F385E02D099534
:105000000CEE13E09AE0C92E94E0D92E8091E803CB
:105010009091E903DC01ED91FC910284F385E02D90
:105020000995F80181938F01CE16DF0679F7C090BC
:105030003E04D0903F046091F30370E090E080E084
:105040000E94132D4B015C01CB01D501F601808735
:105050009187A287B3876091F50370E090E080E0CC
:105060000E94132D8B011C01CB01D101F601848715
:105070009587A687B7876091F70370E090E080E09E
:105080000E94132D2B013C01CB01D301F601808B33
:10509000918BA28BB38B828D938D8130910509F416
:1050A000C6C0E4F4892BA9F19801A101B401C5019E
:1050B0000E94BA2E9B01AC01B201C3010E94BA2E1C
:1050C00023E030E0D60159963C932E93589720E088
:1050D00030E040E450E40E94262FC6C082309105A3
:1050E00009F4C7C0039701F79801A101B401C501F4
:1050F0000E94BA2E9B01AC01B201C3010E94BA2EDC
:105100009B01AC01B201C3010E94BA2E22E030E043
:10511000C4C020E030E0A901B401C5010E94CE2F37
:1051200018160CF07FC0D60159961C921E92589703
:105130009401A501B801C1010E94CE2F18163CF4BC
:1051400081E090E0F601918F808F48015101940138
:10515000A501B201C3010E94CE2F18164CF482E0C3
:1051600090E0D60159969C938E9358974201530133
:1051700020E030E048EC53E4B401C5010E94262F42
:1051800020E030E048EC52E40E94742DF601648B7C
:10519000758B868B978BE0913E04F0913F04828D56
:1051A000938D8530910509F47EC08630910509F410
:1051B0009BC0049709F0B7C08091FB029091FC025C
:1051C000A091FD02B091FE02892B8A2B8B2B21F43A
:1051D00086E690E00E94B4058091FB029091FC026B
:1051E000A091FD02B091FE0280349747AB41B1051A
:1051F00008F477C081E08093030390E080E00E9490
:10520000B40583E290E00197F1F780E090E0892B0C
:1052100009F40BCA0E942E04882309F406CA0E94CE
:10522000000003CA812C912CA12CB12C81CF9401B8
:10523000A501B401C5010E94BA2E9B01AC01B801C1
:10524000C1010E94BA2E9B01AC01B201C3010E94B0
:10525000BA2ED60159961C921E92589720E030E043
:1052600040E85EE30E94742D20E030E048EC53E417
:1052700085CF9801A101B401C5010E94BA2E9B01FE
:10528000AC01B801C1010E94BA2E9B01AC01B20170
:10529000C3010E94BA2E21E030E0D60159963C931A
:1052A0002E935897DBCF8091FB029091FC02A09146
:1052B000FD02B091FE02892B8A2B8B2B21F482EB0D
:1052C00090E00E94B4058091FB029091FC02A091B5
:1052D000FD02B091FE0280349747AB41B10508F062
:1052E00089CF0E9467188DCF8091FB029091FC02BC
:1052F000A091FD02B091FE02892B8A2B8B2B21F409
:105300008FEF90E00E94B4058091FB029091FC0227
:10531000A091FD02B091FE0280349747AB41B105E8
:1053200008F068CFDECF2DEC3CEC4CEC5DE36489FB
:105330007589868997890E94742D4B015C0120E054
:1053400030E0A9010E94CE2F20E030E040E05FE392
:1053500087FD6DC0C501B4010E94BA2E0E94982F2E
:105360000E94152D2DEC3CEC4CEC5DE30E94742D5D
:1053700020E030E04FE753E40E94742D4B015C01C4
:1053800020E030E048E452E40E94CE2F181634F0BA
:10539000812C912C88E4A82E82E4B82EC501B4019A
:1053A0000E94982FCB010E94B4050E94530828EE5A
:1053B00033E040E050E00E94322E672B682B692BCF
:1053C00009F01FCF6DE772E084E093E00E94381887
:1053D000A5019401C501B4010E94D32F69E872E0D0
:1053E00081111AC024013501E89477F82FEF3FEFBF
:1053F0004FE75FE7C301B2010E94D32F81111CC0A8
:105400002FEF3FEF4FE75FE7C301B2010E940E2D80
:10541000181694F46DE872E084E093E00E94CA17D5
:105420006FEB71E084E093E00E94CA17EACEC501F9
:10543000B4010E94B92E92CF2FEF3FEF4FE75FE408
:10544000C501B4010E94CE2F18161CF461E972E068
:10545000E3CF2FEF3FEF4FE75FECC501B4010E94B0
:105460000E2D87FDF3CF20E030E0A901C501B40186
:105470000E940E2D87FF09C06DE284E093E00E9438
:105480006404B7FAB094B7F8B0942AE037ED43EA71
:105490005BE3C501B4010E94BA2E2B013C010E94BE
:1054A0009F2F4B015C010E94132D9B01AC01C30196
:1054B000B2010E94B92E2B013C014AE0C501B401A2
:1054C0000E94D9176EE284E093E00E94640420E019
:1054D00030E040E251E4C301B2010E94742D2B017F
:1054E0003C010E949F2F4B01B12CA12C4AE0C50129
:1054F000B4010E94D917C501B4010E94132D9B016C
:10550000AC01C301B2010E94B92E20E030E040E2BC
:1055100051E40E94742D0E949F2F90E080E04AE0A9
:105520000E94D9177DCFEF920F931F93CF93DF93F4
:10553000E80134E047FD34E1042E000C550B57FF21
:1055400003C0519541955109E32E022F242FAE013E
:105550000E94D72ACE01DF91CF911F910F91EF903A
:105560000895FC0188279927E89421912032E9F3D6
:10557000293010F02E30C8F32B3241F02D3239F49F
:10558000689404C00E94CF2A820F911D219120535C
:105590002A30C0F31EF4909581959F4F08957AE0CC
:1055A000979F902D879F802D910D11240895A9E03C
:1055B000B0E0EDEDFAE20C94792E6A01F22EB02EF5
:1055C000102FFBE3AF2EA01608F41BE31F5F012F83
:1055D00027E0AE014F5F5F4F0E94362CBC018981EE
:1055E000982F9970913009F43FC09BE2E1FC04C010
:1055F0009E2D9170E0FC3AC05E2D5071E82FE8704E
:1056000083FF46C084E0911101C083E0EF2DE81BC9
:105610008F1508F0E0E0D6018E2F20E2552351F1DE
:10562000992329F0D6019C93C60101966C0196013D
:105630002D5F3F4FE2FE24C08EE4D6018C9391E4AF
:1056400011969C93119712968C93D9018E2F90E20C
:1056500081111BC0E20FF32FF11D10828EEF9FEF1F
:105660002996ECE00C94952E9DE2C6CF90E2C4CF33
:105670002D9381508111FCCFCE0ED11CE0E0D0CF14
:105680008EE6D6018C9391E6DBCF9D938150E0CFDF
:10569000482F447082FF3DC084E0911101C083E037
:1056A0008F1510F4EF2DE81BD6018E2F20E2552325
:1056B00009F1992329F0D6019C93C60101966C014A
:1056C00096012D5F3F4FE2FE1BC089E4D6018C930B
:1056D0008EE411968C93119786E412968C93D901DF
:1056E0008E2F90E2882309F4B5CF9D938150FACF95
:1056F0002D9381508111FCCFCE0ED11CE0E0D9CF8B
:1057000089E6D6018C938EE611968C93119786E6E6
:10571000E4CF9B0177FF02C030E020E0A1E0B0E0E1
:10572000911102C0B0E0A0E0F9013196AE0FBF1FA9
:105730008B2C912CBB2009F461C05401EFEFAE1A01
:10574000BE0AAA0DBB1DFA161B0619F014F04F2D48
:105750004A1B511188C0E3FC59C07601A42FB0E266
:10576000A1114FC0C40ED11C992309F45BC040E0C5
:10577000D6011196F60190836D01552309F448C0B6
:10578000012F060F9A81582F507184FF03C0913367
:1057900009F4015010160CF047C0093008F008E079
:1057A000EEE2FE2E5B01A01AB1088501919481946E
:1057B00091082F3F320729F4D601FC92F601319669
:1057C0006F016217730794F1021713077CF5DB0171
:1057D000A21BB30BAA24A394B12CAC0EBD1EAA0D20
:1057E000BB1D11968C9121503109D60111962815B7
:1057F0003905F4F0F60180836D01DBCFB12CA12CCB
:10580000A0CFF701B1937F01A150AACF9111B0CFE2
:10581000D601942F50E302C05D9391509111FCCFBB
:10582000C40ED11C40E0ACCF01E0BACF80E3DBCFA7
:105830006217730731F4963388F4953311F45523C6
:1058400069F0F6018083FD01842F90E2811108C088
:10585000A40FB11D1C9290E080E002CF81E3F1CF54
:1058600091938150F3CF911183CF8ACF283008F0E4
:1058700027E03327DA01990F311D87FD91600096EB
:105880006105710539F432602E5F3D9330E32A954E
:10589000E1F708959F3F30F080387105610509F008
:1058A0003C5F3C5F3D93913008F08068911DDF9331
:1058B000CF931F930F93FF92EF92192F987F969596
:1058C000E92F96959695E90FFF27EE53FF4F9927FD
:1058D0003327EE24FF24A701E701059008940794DD
:1058E00028F4360FE71EF81E491F511D660F771F5B
:1058F000881F991F0694A1F70590079428F4E70ED6
:10590000F81E491F561FC11D770F881F991F661F5C
:105910000694A1F70590079428F4F80E491F561F26
:10592000C71FD11D880F991F661F771F0694A1F707
:105930000590079420F4490F561FC71FD81F990FD1
:10594000661F771F881F0694A9F78491109517701A
:1059500041F0D695C79557954795F794E7941A95D2
:10596000C1F7E8E6F0E068941590159135916591DE
:10597000959105907FE27395E118F10A430B560B60
:10598000C90BD009C0F7E10CF11E431F561FC91FF8
:10599000D01D7EF4703311F48A95E6CFE89401505F
:1059A00030F0080F0AF40027021708F4202F23957F
:1059B000022F7A3328F079E37D932A95E9F710C016
:1059C0007D932A9589F6069497956795379517954F
:1059D0001794E118F10A430B560BC90BD00998F044
:1059E00023957E9173957A3308F070E37C932013AE
:1059F000B8F77E9170617D9330F0839571E37D936C
:105A000070E32A95E1F71124EF90FF900F911F9119
:105A1000CF91DF91992787FD909508950E94502D91
:105A200008F481E00895E89409C097FB3EF490954E
:105A30008095709561957F4F8F4F9F4F9923A9F067
:105A4000F92F96E9BB279395F695879577956795F6
:105A5000B795F111F8CFFAF4BB0F11F460FF1BC03A
:105A60006F5F7F4F8F4F9F4F16C0882311F096E9CD
:105A700011C0772321F09EE8872F762F05C066237B
:105A800071F096E8862F70E060E02AF09A95660F34
:105A9000771F881FDAF7880F9695879597F90895ED
:105AA000990F0008550FAA0BE0E8FEEF161617062F
:105AB000E807F907C0F012161306E407F50798F097
:105AC000621B730B840B950B39F40A2661F0232BB0
:105AD000242B252B21F408950A2609F4A140A6952C
